{
  "_format": "hh-sol-artifact-1",
  "contractName": "StateAssemblyElection",
  "sourceName": "contracts/StateAssemblyElection.sol",
  "abi": [
    {
      "inputs": [
        {
          "internalType": "string",
          "name": "_name",
          "type": "string"
        },
        {
          "internalType": "uint256",
          "name": "_votingStartTime",
          "type": "uint256"
        },
        {
          "internalType": "uint256",
          "name": "_votingEndTime",
          "type": "uint256"
        },
        {
          "internalType": "uint256",
          "name": "_candidateRegistrationStartTime",
          "type": "uint256"
        },
        {
          "internalType": "uint256",
          "name": "_candidateRegistrationEndTime",
          "type": "uint256"
        },
        {
          "internalType": "uint256",
          "name": "_stateCode",
          "type": "uint256"
        }
      ],
      "name": "createElection",
      "outputs": [],
      "stateMutability": "nonpayable",
      "type": "function"
    },
    {
      "inputs": [
        {
          "internalType": "uint256",
          "name": "_electionId",
          "type": "uint256"
        },
        {
          "internalType": "uint256",
          "name": "_constituencyId",
          "type": "uint256"
        }
      ],
      "name": "getAllCandidateDetails",
      "outputs": [
        {
          "components": [
            {
              "internalType": "uint256",
              "name": "id",
              "type": "uint256"
            },
            {
              "internalType": "uint256",
              "name": "constituencyId",
              "type": "uint256"
            },
            {
              "internalType": "uint256",
              "name": "constituencyCode",
              "type": "uint256"
            },
            {
              "internalType": "uint256",
              "name": "electionId",
              "type": "uint256"
            },
            {
              "internalType": "string",
              "name": "name",
              "type": "string"
            },
            {
              "internalType": "string",
              "name": "partyName",
              "type": "string"
            },
            {
              "internalType": "string",
              "name": "partyShortcutName",
              "type": "string"
            },
            {
              "internalType": "string",
              "name": "partyFlagUrl",
              "type": "string"
            },
            {
              "internalType": "string",
              "name": "photoUrl",
              "type": "string"
            },
            {
              "internalType": "uint256",
              "name": "totalVotes",
              "type": "uint256"
            },
            {
              "internalType": "uint256",
              "name": "stateCode",
              "type": "uint256"
            }
          ],
          "internalType": "struct StateAssemblyElection.CandidateInfo[]",
          "name": "",
          "type": "tuple[]"
        }
      ],
      "stateMutability": "view",
      "type": "function"
    },
    {
      "inputs": [
        {
          "internalType": "uint256",
          "name": "_electionId",
          "type": "uint256"
        }
      ],
      "name": "getAllConstituencyDetails",
      "outputs": [
        {
          "components": [
            {
              "internalType": "uint256",
              "name": "constituencyId",
              "type": "uint256"
            },
            {
              "internalType": "uint256",
              "name": "constituencyCode",
              "type": "uint256"
            },
            {
              "internalType": "string",
              "name": "name",
              "type": "string"
            },
            {
              "internalType": "uint256",
              "name": "totalVoted",
              "type": "uint256"
            },
            {
              "internalType": "uint256",
              "name": "candidateCounter",
              "type": "uint256"
            },
            {
              "internalType": "uint256",
              "name": "electionId",
              "type": "uint256"
            },
            {
              "internalType": "uint256",
              "name": "stateCode",
              "type": "uint256"
            }
          ],
          "internalType": "struct StateAssemblyElection.ConstituencyInfo[]",
          "name": "",
          "type": "tuple[]"
        }
      ],
      "stateMutability": "view",
      "type": "function"
    },
    {
      "inputs": [],
      "name": "getAllElectionDetails",
      "outputs": [
        {
          "components": [
            {
              "internalType": "uint256",
              "name": "id",
              "type": "uint256"
            },
            {
              "internalType": "string",
              "name": "name",
              "type": "string"
            },
            {
              "internalType": "uint256",
              "name": "votingStartTime",
              "type": "uint256"
            },
            {
              "internalType": "uint256",
              "name": "votingEndTime",
              "type": "uint256"
            },
            {
              "internalType": "uint256",
              "name": "candidateRegistrationStartTime",
              "type": "uint256"
            },
            {
              "internalType": "uint256",
              "name": "candidateRegistrationEndTime",
              "type": "uint256"
            },
            {
              "internalType": "uint256",
              "name": "totalVotes",
              "type": "uint256"
            },
            {
              "internalType": "uint256",
              "name": "stateCode",
              "type": "uint256"
            },
            {
              "internalType": "uint256",
              "name": "constituencyCounter",
              "type": "uint256"
            }
          ],
          "internalType": "struct StateAssemblyElection.ElectionInfo[]",
          "name": "",
          "type": "tuple[]"
        }
      ],
      "stateMutability": "view",
      "type": "function"
    },
    {
      "inputs": [
        {
          "internalType": "uint256",
          "name": "_electionId",
          "type": "uint256"
        },
        {
          "internalType": "uint256",
          "name": "_constituencyId",
          "type": "uint256"
        },
        {
          "internalType": "uint256",
          "name": "_candidateId",
          "type": "uint256"
        }
      ],
      "name": "getCandidateDetails",
      "outputs": [
        {
          "components": [
            {
              "internalType": "uint256",
              "name": "id",
              "type": "uint256"
            },
            {
              "internalType": "uint256",
              "name": "constituencyId",
              "type": "uint256"
            },
            {
              "internalType": "uint256",
              "name": "constituencyCode",
              "type": "uint256"
            },
            {
              "internalType": "uint256",
              "name": "electionId",
              "type": "uint256"
            },
            {
              "internalType": "string",
              "name": "name",
              "type": "string"
            },
            {
              "internalType": "string",
              "name": "partyName",
              "type": "string"
            },
            {
              "internalType": "string",
              "name": "partyShortcutName",
              "type": "string"
            },
            {
              "internalType": "string",
              "name": "partyFlagUrl",
              "type": "string"
            },
            {
              "internalType": "string",
              "name": "photoUrl",
              "type": "string"
            },
            {
              "internalType": "uint256",
              "name": "totalVotes",
              "type": "uint256"
            },
            {
              "internalType": "uint256",
              "name": "stateCode",
              "type": "uint256"
            }
          ],
          "internalType": "struct StateAssemblyElection.CandidateInfo",
          "name": "",
          "type": "tuple"
        }
      ],
      "stateMutability": "view",
      "type": "function"
    },
    {
      "inputs": [
        {
          "internalType": "uint256",
          "name": "_electionId",
          "type": "uint256"
        },
        {
          "internalType": "uint256",
          "name": "_constituencyId",
          "type": "uint256"
        }
      ],
      "name": "getConstituencyDetails",
      "outputs": [
        {
          "internalType": "uint256",
          "name": "",
          "type": "uint256"
        },
        {
          "internalType": "uint256",
          "name": "",
          "type": "uint256"
        },
        {
          "internalType": "string",
          "name": "",
          "type": "string"
        },
        {
          "internalType": "uint256",
          "name": "",
          "type": "uint256"
        },
        {
          "internalType": "uint256",
          "name": "",
          "type": "uint256"
        },
        {
          "internalType": "uint256",
          "name": "",
          "type": "uint256"
        },
        {
          "internalType": "uint256",
          "name": "",
          "type": "uint256"
        }
      ],
      "stateMutability": "view",
      "type": "function"
    },
    {
      "inputs": [
        {
          "internalType": "uint256",
          "name": "_electionId",
          "type": "uint256"
        }
      ],
      "name": "getElectionDetails",
      "outputs": [
        {
          "internalType": "uint256",
          "name": "",
          "type": "uint256"
        },
        {
          "internalType": "string",
          "name": "",
          "type": "string"
        },
        {
          "internalType": "uint256",
          "name": "",
          "type": "uint256"
        },
        {
          "internalType": "uint256",
          "name": "",
          "type": "uint256"
        },
        {
          "internalType": "uint256",
          "name": "",
          "type": "uint256"
        },
        {
          "internalType": "uint256",
          "name": "",
          "type": "uint256"
        },
        {
          "internalType": "uint256",
          "name": "",
          "type": "uint256"
        },
        {
          "internalType": "uint256",
          "name": "",
          "type": "uint256"
        },
        {
          "internalType": "uint256",
          "name": "",
          "type": "uint256"
        }
      ],
      "stateMutability": "view",
      "type": "function"
    },
    {
      "inputs": [
        {
          "internalType": "uint256",
          "name": "_electionId",
          "type": "uint256"
        },
        {
          "internalType": "uint256",
          "name": "_constituencyId",
          "type": "uint256"
        },
        {
          "internalType": "string",
          "name": "_name",
          "type": "string"
        },
        {
          "internalType": "string",
          "name": "_partyName",
          "type": "string"
        },
        {
          "internalType": "string",
          "name": "_partyShortcutName",
          "type": "string"
        },
        {
          "internalType": "string",
          "name": "_partyFlagUrl",
          "type": "string"
        },
        {
          "internalType": "string",
          "name": "_photoUrl",
          "type": "string"
        }
      ],
      "name": "registerCandidate",
      "outputs": [],
      "stateMutability": "nonpayable",
      "type": "function"
    },
    {
      "inputs": [
        {
          "internalType": "uint256",
          "name": "_electionId",
          "type": "uint256"
        },
        {
          "internalType": "string",
          "name": "_name",
          "type": "string"
        },
        {
          "internalType": "uint256",
          "name": "_constituencyCode",
          "type": "uint256"
        }
      ],
      "name": "registerConstituency",
      "outputs": [],
      "stateMutability": "nonpayable",
      "type": "function"
    },
    {
      "inputs": [
        {
          "internalType": "uint256",
          "name": "_electionId",
          "type": "uint256"
        },
        {
          "internalType": "uint256",
          "name": "_constituencyId",
          "type": "uint256"
        },
        {
          "internalType": "uint256",
          "name": "_candidateId",
          "type": "uint256"
        },
        {
          "internalType": "uint256",
          "name": "_voterId",
          "type": "uint256"
        }
      ],
      "name": "vote",
      "outputs": [],
      "stateMutability": "nonpayable",
      "type": "function"
    }
  ],
  "bytecode": "0x608060405234801561001057600080fd5b50613078806100206000396000f3fe608060405234801561001057600080fd5b506004361061009e5760003560e01c8063a029aafb11610066578063a029aafb14610173578063cb18850f1461018f578063d51f751e146101bf578063d9be401c146101db578063f6049924146101f75761009e565b80632fd23a3f146100a3578063650cc7c2146100d95780636638937d146100f757806368c9e388146101275780638f03fd9d14610143575b600080fd5b6100bd60048036038101906100b89190612209565b61022f565b6040516100d09796959493929190612ce3565b60405180910390f35b6100e1610333565b6040516100ee9190612b8b565b60405180910390f35b610111600480360381019061010c919061235b565b61082b565b60405161011e9190612c2d565b60405180910390f35b610141600480360381019061013c91906123aa565b610c43565b005b61015d60048036038101906101589190612209565b610dd2565b60405161016a9190612b47565b60405180910390f35b61018d60048036038101906101889190612245565b6115ce565b005b6101a960048036038101906101a49190612179565b61176d565b6040516101b69190612b69565b60405180910390f35b6101d960048036038101906101d491906120d8565b611b98565b005b6101f560048036038101906101f091906121a2565b611cab565b005b610211600480360381019061020c9190612179565b611dd9565b60405161022699989796959493929190612c4f565b60405180910390f35b600080606060008060008060008060008b8152602001908152602001600020905060008160090160008b815260200190815260200160002090508060000154816001015482600201836003015484600501548660070154876000015484805461029790612f12565b80601f01602080910402602001604051908101604052809291908181526020018280546102c390612f12565b80156103105780601f106102e557610100808354040283529160200191610310565b820191906000526020600020905b8154815290600101906020018083116102f357829003601f168201915b505050505094509850985098509850985098509850505092959891949750929550565b6060600060015467ffffffffffffffff811115610379577f4e487b7100000000000000000000000000000000000000000000000000000000600052604160045260246000fd5b6040519080825280602002602001820160405280156103b257816020015b61039f611ed5565b8152602001906001900390816103975790505b5090506000600190505b60015481116108235760008082815260200190815260200160002060000154826001836103e99190612e92565b81518110610420577f4e487b7100000000000000000000000000000000000000000000000000000000600052603260045260246000fd5b60200260200101516000018181525050600080828152602001908152602001600020600101805461045090612f12565b80601f016020809104026020016040519081016040528092919081815260200182805461047c90612f12565b80156104c95780601f1061049e576101008083540402835291602001916104c9565b820191906000526020600020905b8154815290600101906020018083116104ac57829003601f168201915b5050505050826001836104dc9190612e92565b81518110610513577f4e487b7100000000000000000000000000000000000000000000000000000000600052603260045260246000fd5b60200260200101516020018190525060008082815260200190815260200160002060020154826001836105469190612e92565b8151811061057d577f4e487b7100000000000000000000000000000000000000000000000000000000600052603260045260246000fd5b6020026020010151604001818152505060008082815260200190815260200160002060030154826001836105b19190612e92565b815181106105e8577f4e487b7100000000000000000000000000000000000000000000000000000000600052603260045260246000fd5b60200260200101516060018181525050600080828152602001908152602001600020600401548260018361061c9190612e92565b81518110610653577f4e487b7100000000000000000000000000000000000000000000000000000000600052603260045260246000fd5b6020026020010151608001818152505060008082815260200190815260200160002060050154826001836106879190612e92565b815181106106be577f4e487b7100000000000000000000000000000000000000000000000000000000600052603260045260246000fd5b602002602001015160a001818152505060008082815260200190815260200160002060060154826001836106f29190612e92565b81518110610729577f4e487b7100000000000000000000000000000000000000000000000000000000600052603260045260246000fd5b602002602001015160c0018181525050600080828152602001908152602001600020600701548260018361075d9190612e92565b81518110610794577f4e487b7100000000000000000000000000000000000000000000000000000000600052603260045260246000fd5b602002602001015160e0018181525050600080828152602001908152602001600020600a0154826001836107c89190612e92565b815181106107ff577f4e487b7100000000000000000000000000000000000000000000000000000000600052603260045260246000fd5b6020026020010151610100018181525050808061081b90612f44565b9150506103bc565b508091505090565b610833611f21565b600080600086815260200190815260200160002090506000816009016000868152602001908152602001600020905061086a611f21565b8160040160008681526020019081526020016000206000015481600001818152505081600001548160200181815250508160010154816040018181525050826000015481606001818152505081600401600086815260200190815260200160002060010180546108d990612f12565b80601f016020809104026020016040519081016040528092919081815260200182805461090590612f12565b80156109525780601f1061092757610100808354040283529160200191610952565b820191906000526020600020905b81548152906001019060200180831161093557829003601f168201915b50505050508160800181905250816004016000868152602001908152602001600020600201805461098290612f12565b80601f01602080910402602001604051908101604052809291908181526020018280546109ae90612f12565b80156109fb5780601f106109d0576101008083540402835291602001916109fb565b820191906000526020600020905b8154815290600101906020018083116109de57829003601f168201915b50505050508160a001819052508160040160008681526020019081526020016000206003018054610a2b90612f12565b80601f0160208091040260200160405190810160405280929190818152602001828054610a5790612f12565b8015610aa45780601f10610a7957610100808354040283529160200191610aa4565b820191906000526020600020905b815481529060010190602001808311610a8757829003601f168201915b50505050508160c001819052508160040160008681526020019081526020016000206004018054610ad490612f12565b80601f0160208091040260200160405190810160405280929190818152602001828054610b0090612f12565b8015610b4d5780601f10610b2257610100808354040283529160200191610b4d565b820191906000526020600020905b815481529060010190602001808311610b3057829003601f168201915b50505050508160e001819052508160040160008681526020019081526020016000206005018054610b7d90612f12565b80601f0160208091040260200160405190810160405280929190818152602001828054610ba990612f12565b8015610bf65780601f10610bcb57610100808354040283529160200191610bf6565b820191906000526020600020905b815481529060010190602001808311610bd957829003601f168201915b505050505081610100018190525081600401600086815260200190815260200160002060060154816101200181815250508260070154816101400181815250508093505050509392505050565b6000806000868152602001908152602001600020905042816002015411158015610c71575080600301544211155b610cb0576040517f08c379a0000000000000000000000000000000000000000000000000000000008152600401610ca790612bed565b60405180910390fd5b80600801600083815260200190815260200160002060009054906101000a900460ff1615610d13576040517f08c379a0000000000000000000000000000000000000000000000000000000008152600401610d0a90612bcd565b60405180910390fd5b600181600801600084815260200190815260200160002060006101000a81548160ff02191690831515021790555080600901600085815260200190815260200160002060040160008481526020019081526020016000206006016000815480929190610d7e90612f44565b91905055508060090160008581526020019081526020016000206003016000815480929190610dac90612f44565b9190505550806006016000815480929190610dc690612f44565b91905055505050505050565b60606000806000858152602001908152602001600020600901600084815260200190815260200160002090506000816005015467ffffffffffffffff811115610e44577f4e487b7100000000000000000000000000000000000000000000000000000000600052604160045260246000fd5b604051908082528060200260200182016040528015610e7d57816020015b610e6a611f21565b815260200190600190039081610e625790505b5090506000600190505b826005015481116115c2578260040160008281526020019081526020016000206000015482600183610eb99190612e92565b81518110610ef0577f4e487b7100000000000000000000000000000000000000000000000000000000600052603260045260246000fd5b60200260200101516000018181525050826000015482600183610f139190612e92565b81518110610f4a577f4e487b7100000000000000000000000000000000000000000000000000000000600052603260045260246000fd5b60200260200101516020018181525050826001015482600183610f6d9190612e92565b81518110610fa4577f4e487b7100000000000000000000000000000000000000000000000000000000600052603260045260246000fd5b602002602001015160400181815250508582600183610fc39190612e92565b81518110610ffa577f4e487b7100000000000000000000000000000000000000000000000000000000600052603260045260246000fd5b60200260200101516060018181525050826004016000828152602001908152602001600020600101805461102d90612f12565b80601f016020809104026020016040519081016040528092919081815260200182805461105990612f12565b80156110a65780601f1061107b576101008083540402835291602001916110a6565b820191906000526020600020905b81548152906001019060200180831161108957829003601f168201915b5050505050826001836110b99190612e92565b815181106110f0577f4e487b7100000000000000000000000000000000000000000000000000000000600052603260045260246000fd5b602002602001015160800181905250826004016000828152602001908152602001600020600201805461112290612f12565b80601f016020809104026020016040519081016040528092919081815260200182805461114e90612f12565b801561119b5780601f106111705761010080835404028352916020019161119b565b820191906000526020600020905b81548152906001019060200180831161117e57829003601f168201915b5050505050826001836111ae9190612e92565b815181106111e5577f4e487b7100000000000000000000000000000000000000000000000000000000600052603260045260246000fd5b602002602001015160a00181905250826004016000828152602001908152602001600020600301805461121790612f12565b80601f016020809104026020016040519081016040528092919081815260200182805461124390612f12565b80156112905780601f1061126557610100808354040283529160200191611290565b820191906000526020600020905b81548152906001019060200180831161127357829003601f168201915b5050505050826001836112a39190612e92565b815181106112da577f4e487b7100000000000000000000000000000000000000000000000000000000600052603260045260246000fd5b602002602001015160c00181905250826004016000828152602001908152602001600020600401805461130c90612f12565b80601f016020809104026020016040519081016040528092919081815260200182805461133890612f12565b80156113855780601f1061135a57610100808354040283529160200191611385565b820191906000526020600020905b81548152906001019060200180831161136857829003601f168201915b5050505050826001836113989190612e92565b815181106113cf577f4e487b7100000000000000000000000000000000000000000000000000000000600052603260045260246000fd5b602002602001015160e00181905250826004016000828152602001908152602001600020600501805461140190612f12565b80601f016020809104026020016040519081016040528092919081815260200182805461142d90612f12565b801561147a5780601f1061144f5761010080835404028352916020019161147a565b820191906000526020600020905b81548152906001019060200180831161145d57829003601f168201915b50505050508260018361148d9190612e92565b815181106114c4577f4e487b7100000000000000000000000000000000000000000000000000000000600052603260045260246000fd5b6020026020010151610100018190525082600401600082815260200190815260200160002060060154826001836114fb9190612e92565b81518110611532577f4e487b7100000000000000000000000000000000000000000000000000000000600052603260045260246000fd5b602002602001015161012001818152505060008087815260200190815260200160002060070154826001836115679190612e92565b8151811061159e577f4e487b7100000000000000000000000000000000000000000000000000000000600052603260045260246000fd5b602002602001015161012001818152505080806115ba90612f44565b915050610e87565b50809250505092915050565b600080600089815260200190815260200160002060090160008881526020019081526020016000209050426000808a8152602001908152602001600020600501541015611650576040517f08c379a000000000000000000000000000000000000000000000000000000000815260040161164790612bad565b60405180910390fd5b80600501600081548092919061166590612f44565b91905055506040518060e00160405280826005015481526020018781526020018681526020018581526020018481526020018381526020016000815250816004016000836005015481526020019081526020016000206000820151816000015560208201518160010190805190602001906116e1929190611f7b565b5060408201518160020190805190602001906116fe929190611f7b565b50606082015181600301908051906020019061171b929190611f7b565b506080820151816004019080519060200190611738929190611f7b565b5060a0820151816005019080519060200190611755929190611f7b565b5060c082015181600601559050505050505050505050565b606060008060008481526020019081526020016000209050600081600a015467ffffffffffffffff8111156117cb577f4e487b7100000000000000000000000000000000000000000000000000000000600052604160045260246000fd5b60405190808252806020026020018201604052801561180457816020015b6117f1612001565b8152602001906001900390816117e95790505b5090506000600190505b82600a01548111611b8d5782600901600082815260200190815260200160002060000154826001836118409190612e92565b81518110611877577f4e487b7100000000000000000000000000000000000000000000000000000000600052603260045260246000fd5b6020026020010151600001818152505082600901600082815260200190815260200160002060010154826001836118ae9190612e92565b815181106118e5577f4e487b7100000000000000000000000000000000000000000000000000000000600052603260045260246000fd5b60200260200101516020018181525050826009016000828152602001908152602001600020600201805461191890612f12565b80601f016020809104026020016040519081016040528092919081815260200182805461194490612f12565b80156119915780601f1061196657610100808354040283529160200191611991565b820191906000526020600020905b81548152906001019060200180831161197457829003601f168201915b5050505050826001836119a49190612e92565b815181106119db577f4e487b7100000000000000000000000000000000000000000000000000000000600052603260045260246000fd5b6020026020010151604001819052508260090160008281526020019081526020016000206003015482600183611a119190612e92565b81518110611a48577f4e487b7100000000000000000000000000000000000000000000000000000000600052603260045260246000fd5b602002602001015160600181815250508260090160008281526020019081526020016000206005015482600183611a7f9190612e92565b81518110611ab6577f4e487b7100000000000000000000000000000000000000000000000000000000600052603260045260246000fd5b60200260200101516080018181525050826000015482600183611ad99190612e92565b81518110611b10577f4e487b7100000000000000000000000000000000000000000000000000000000600052603260045260246000fd5b602002602001015160a0018181525050826007015482600183611b339190612e92565b81518110611b6a577f4e487b7100000000000000000000000000000000000000000000000000000000600052603260045260246000fd5b602002602001015160c00181815250508080611b8590612f44565b91505061180e565b508092505050919050565b60016000815480929190611bab90612f44565b91905055506001546000806001548152602001908152602001600020600001819055508560008060015481526020019081526020016000206001019080519060200190611bf9929190611f7b565b5084600080600154815260200190815260200160002060020181905550836000806001548152602001908152602001600020600301819055508260008060015481526020019081526020016000206004018190555081600080600154815260200190815260200160002060050181905550806000806001548152602001908152602001600020600701819055506000806000600154815260200190815260200160002060070181905550505050505050565b600080600085815260200190815260200160002090504281600501541015611d08576040517f08c379a0000000000000000000000000000000000000000000000000000000008152600401611cff90612c0d565b60405180910390fd5b80600a016000815480929190611d1d90612f44565b919050555080600a0154816009016000600154815260200190815260200160002060000181905550818160090160006001548152602001908152602001600020600101819055508281600901600060015481526020019081526020016000206002019080519060200190611d92929190611f7b565b506000816009016000600154815260200190815260200160002060030181905550600081600901600060015481526020019081526020016000206005018190555050505050565b600060606000806000806000806000806000808c8152602001908152602001600020905080600001548160010182600201548360030154846004015485600501548660060154876007015488600a0154878054611e3590612f12565b80601f0160208091040260200160405190810160405280929190818152602001828054611e6190612f12565b8015611eae5780601f10611e8357610100808354040283529160200191611eae565b820191906000526020600020905b815481529060010190602001808311611e9157829003601f168201915b50505050509750995099509950995099509950995099509950509193959799909294969850565b6040518061012001604052806000815260200160608152602001600081526020016000815260200160008152602001600081526020016000815260200160008152602001600081525090565b60405180610160016040528060008152602001600081526020016000815260200160008152602001606081526020016060815260200160608152602001606081526020016060815260200160008152602001600081525090565b828054611f8790612f12565b90600052602060002090601f016020900481019282611fa95760008555611ff0565b82601f10611fc257805160ff1916838001178555611ff0565b82800160010185558215611ff0579182015b82811115611fef578251825591602001919060010190611fd4565b5b509050611ffd919061203e565b5090565b6040518060e00160405280600081526020016000815260200160608152602001600081526020016000815260200160008152602001600081525090565b5b8082111561205757600081600090555060010161203f565b5090565b600061206e61206984612d8a565b612d59565b90508281526020810184848401111561208657600080fd5b612091848285612ed0565b509392505050565b600082601f8301126120aa57600080fd5b81356120ba84826020860161205b565b91505092915050565b6000813590506120d28161302b565b92915050565b60008060008060008060c087890312156120f157600080fd5b600087013567ffffffffffffffff81111561210b57600080fd5b61211789828a01612099565b965050602061212889828a016120c3565b955050604061213989828a016120c3565b945050606061214a89828a016120c3565b935050608061215b89828a016120c3565b92505060a061216c89828a016120c3565b9150509295509295509295565b60006020828403121561218b57600080fd5b6000612199848285016120c3565b91505092915050565b6000806000606084860312156121b757600080fd5b60006121c5868287016120c3565b935050602084013567ffffffffffffffff8111156121e257600080fd5b6121ee86828701612099565b92505060406121ff868287016120c3565b9150509250925092565b6000806040838503121561221c57600080fd5b600061222a858286016120c3565b925050602061223b858286016120c3565b9150509250929050565b600080600080600080600060e0888a03121561226057600080fd5b600061226e8a828b016120c3565b975050602061227f8a828b016120c3565b965050604088013567ffffffffffffffff81111561229c57600080fd5b6122a88a828b01612099565b955050606088013567ffffffffffffffff8111156122c557600080fd5b6122d18a828b01612099565b945050608088013567ffffffffffffffff8111156122ee57600080fd5b6122fa8a828b01612099565b93505060a088013567ffffffffffffffff81111561231757600080fd5b6123238a828b01612099565b92505060c088013567ffffffffffffffff81111561234057600080fd5b61234c8a828b01612099565b91505092959891949750929550565b60008060006060848603121561237057600080fd5b600061237e868287016120c3565b935050602061238f868287016120c3565b92505060406123a0868287016120c3565b9150509250925092565b600080600080608085870312156123c057600080fd5b60006123ce878288016120c3565b94505060206123df878288016120c3565b93505060406123f0878288016120c3565b9250506060612401878288016120c3565b91505092959194509250565b600061241983836127b2565b905092915050565b600061242d83836129c8565b905092915050565b60006124418383612a64565b905092915050565b600061245482612dea565b61245e8185612e3d565b93508360208202850161247085612dba565b8060005b858110156124ac578484038952815161248d858261240d565b945061249883612e16565b925060208a01995050600181019050612474565b50829750879550505050505092915050565b60006124c982612df5565b6124d38185612e4e565b9350836020820285016124e585612dca565b8060005b8581101561252157848403895281516125028582612421565b945061250d83612e23565b925060208a019950506001810190506124e9565b50829750879550505050505092915050565b600061253e82612e00565b6125488185612e5f565b93508360208202850161255a85612dda565b8060005b8581101561259657848403895281516125778582612435565b945061258283612e30565b925060208a0199505060018101905061255e565b50829750879550505050505092915050565b60006125b382612e0b565b6125bd8185612e70565b93506125cd818560208601612edf565b6125d68161301a565b840191505092915050565b60006125ec82612e0b565b6125f68185612e81565b9350612606818560208601612edf565b61260f8161301a565b840191505092915050565b6000612627603383612e81565b91507f43616e64696461746520726567697374726174696f6e20697320636c6f73656460008301527f20666f72207468697320656c656374696f6e2e000000000000000000000000006020830152604082019050919050565b600061268d603483612e81565b91507f5468697320766f7465722068617320616c72656164792063617374206120766f60008301527f746520696e207468697320656c656374696f6e2e0000000000000000000000006020830152604082019050919050565b60006126f3602f83612e81565b91507f566f74696e67206973206e6f742063757272656e746c79206f70656e20666f7260008301527f207468697320656c656374696f6e2e00000000000000000000000000000000006020830152604082019050919050565b6000612759603683612e81565b91507f436f6e7374697475656e637920726567697374726174696f6e20697320636c6f60008301527f73656420666f72207468697320656c656374696f6e2e000000000000000000006020830152604082019050919050565b6000610160830160008301516127cb6000860182612b29565b5060208301516127de6020860182612b29565b5060408301516127f16040860182612b29565b5060608301516128046060860182612b29565b506080830151848203608086015261281c82826125a8565b91505060a083015184820360a086015261283682826125a8565b91505060c083015184820360c086015261285082826125a8565b91505060e083015184820360e086015261286a82826125a8565b91505061010083015184820361010086015261288682826125a8565b91505061012083015161289d610120860182612b29565b506101408301516128b2610140860182612b29565b508091505092915050565b6000610160830160008301516128d66000860182612b29565b5060208301516128e96020860182612b29565b5060408301516128fc6040860182612b29565b50606083015161290f6060860182612b29565b506080830151848203608086015261292782826125a8565b91505060a083015184820360a086015261294182826125a8565b91505060c083015184820360c086015261295b82826125a8565b91505060e083015184820360e086015261297582826125a8565b91505061010083015184820361010086015261299182826125a8565b9150506101208301516129a8610120860182612b29565b506101408301516129bd610140860182612b29565b508091505092915050565b600060e0830160008301516129e06000860182612b29565b5060208301516129f36020860182612b29565b5060408301518482036040860152612a0b82826125a8565b9150506060830151612a206060860182612b29565b506080830151612a336080860182612b29565b5060a0830151612a4660a0860182612b29565b5060c0830151612a5960c0860182612b29565b508091505092915050565b600061012083016000830151612a7d6000860182612b29565b5060208301518482036020860152612a9582826125a8565b9150506040830151612aaa6040860182612b29565b506060830151612abd6060860182612b29565b506080830151612ad06080860182612b29565b5060a0830151612ae360a0860182612b29565b5060c0830151612af660c0860182612b29565b5060e0830151612b0960e0860182612b29565b50610100830151612b1e610100860182612b29565b508091505092915050565b612b3281612ec6565b82525050565b612b4181612ec6565b82525050565b60006020820190508181036000830152612b618184612449565b905092915050565b60006020820190508181036000830152612b8381846124be565b905092915050565b60006020820190508181036000830152612ba58184612533565b905092915050565b60006020820190508181036000830152612bc68161261a565b9050919050565b60006020820190508181036000830152612be681612680565b9050919050565b60006020820190508181036000830152612c06816126e6565b9050919050565b60006020820190508181036000830152612c268161274c565b9050919050565b60006020820190508181036000830152612c4781846128bd565b905092915050565b600061012082019050612c65600083018c612b38565b8181036020830152612c77818b6125e1565b9050612c86604083018a612b38565b612c936060830189612b38565b612ca06080830188612b38565b612cad60a0830187612b38565b612cba60c0830186612b38565b612cc760e0830185612b38565b612cd5610100830184612b38565b9a9950505050505050505050565b600060e082019050612cf8600083018a612b38565b612d056020830189612b38565b8181036040830152612d1781886125e1565b9050612d266060830187612b38565b612d336080830186612b38565b612d4060a0830185612b38565b612d4d60c0830184612b38565b98975050505050505050565b6000604051905081810181811067ffffffffffffffff82111715612d8057612d7f612feb565b5b8060405250919050565b600067ffffffffffffffff821115612da557612da4612feb565b5b601f19601f8301169050602081019050919050565b6000819050602082019050919050565b6000819050602082019050919050565b6000819050602082019050919050565b600081519050919050565b600081519050919050565b600081519050919050565b600081519050919050565b6000602082019050919050565b6000602082019050919050565b6000602082019050919050565b600082825260208201905092915050565b600082825260208201905092915050565b600082825260208201905092915050565b600082825260208201905092915050565b600082825260208201905092915050565b6000612e9d82612ec6565b9150612ea883612ec6565b925082821015612ebb57612eba612f8d565b5b828203905092915050565b6000819050919050565b82818337600083830152505050565b60005b83811015612efd578082015181840152602081019050612ee2565b83811115612f0c576000848401525b50505050565b60006002820490506001821680612f2a57607f821691505b60208210811415612f3e57612f3d612fbc565b5b50919050565b6000612f4f82612ec6565b91507fffffffffffffffffffffffffffffffffffffffffffffffffffffffffffffffff821415612f8257612f81612f8d565b5b600182019050919050565b7f4e487b7100000000000000000000000000000000000000000000000000000000600052601160045260246000fd5b7f4e487b7100000000000000000000000000000000000000000000000000000000600052602260045260246000fd5b7f4e487b7100000000000000000000000000000000000000000000000000000000600052604160045260246000fd5b6000601f19601f8301169050919050565b61303481612ec6565b811461303f57600080fd5b5056fea2646970667358221220a3aae75adaff882a8dfeb5b2e2a2fba85549f77b92b06f92eb56b90aebdd10c864736f6c63430008000033",
  "linkReferences": {},
  "deployedLinkReferences": {}
}